:020000040800F2
:1000000060060020450200084D0200084F0200086B
:1000100051020008530200085502000800000000C9
:10002000000000000000000000000000570200086F
:1000300059020008000000005B0200085D02000891
:100040005F0200085F0200085F0200085F0200080C
:100050005F0200085F0200085F0200085F020008FC
:100060005F0200085F0200085F0200085F020008EC
:100070005F0200085F0200085F0200085F020008DC
:100080005F0200085F0200085F0200080000000035
:100090000000000000000000000000005F020008F7
:1000A0005F0200085F0200085F0200085F020008AC
:1000B0005F0200085F0200085F0200085F0200089C
:1000C0005F0200085F0200085F0200085F0200088C
:1000D0005F0200085F0200085F02000800000000E5
:1000E0005F0200085F0200085F02000800000000D5
:1000F0000000000000000000000000005F02000897
:10010000000000005F0200085F0200085F020008B4
:1001100000000000000000000000000000000000DF
:100120005F0200085F0200085F0200085F0200082B
:100130005F02000800000000000000000000000056
:100140000000000000000000000000005F02000846
:100150005F0200085F0200085F0200085F020008FB
:100160005F0200085F0200080000000000000000BD
:10017000000000000000000000000000000000007F
:10018000000000005F020008000000000000000006
:100190005F02000800F002F800F044F814A696E8A8
:1001A000000CB244B344DA4501D100F03BF8BAE8A0
:1001B0000F000FA696E83000A5EB040504EB060738
:1001C000AAEB0704A7F101074FEA15154FEA34140B
:1001D000A4F10104AC4201D300F024F813F0010FA4
:1001E00018BFFB1A43F0010300F001F8DBE71847E2
:1001F0006C0800007C080000704700000023002409
:1002000000250026103A28BF78C1FBD8520728BF26
:1002100030C148BF0B6070471FB500F012FC1FBD16
:1002200010B510BD00F031F81146FFF7F5FF00F0F2
:1002300071F800F04FF803B4FFF7F2FF03BC00F0D1
:1002400057F800000948804709480047FEE7FEE7E5
:10025000FEE7FEE7FEE7FEE7FEE7FEE7FEE7FEE776
:1002600004480549054A064B704700000103000891
:100270009501000860000020600600206002002058
:1002800060020020704770477047754600F02CF8F8
:10029000AE4605006946534620F00700854618B073
:1002A00020B5FFF7DDFFBDE820404FF000064FF01E
:1002B00000074FF000084FF0000BAC46ACE8C00957
:1002C000ACE8C009ACE8C009ACE8C00921F00701FE
:1002D0008D46704710B50446AFF300802046BDE858
:1002E0001040FFF7A8BF0000004870470000002042
:1002F00001491820ABBEFEE726000200704700004F
:100300004EF68851CEF20001086840F47000086093
:1003100070470000A8B00020279043F63001C4F2D7
:100320000201086840F0010008600021C4F20201E7
:100330001291086840F001000860086840F004006D
:100340000860086840F010000860086840F040004D
:100350000860086840F480700860086840F48060B5
:100360000860086840F480500860FFE71421C4F278
:1003700002011191086840F001000860086840F02F
:1003800002000860086840F004000860086840F057
:1003900008000860086840F010000860086840F035
:1003A0002000086001202690FFE726984AF22011DD
:1003B000C0F20701884205DCFFE7FFE7269801301D
:1003C0002690F2E71421C4F202011091086820F08F
:1003D00001000860086820F002000860086820F04A
:1003E00004000860086820F008000860086820F031
:1003F00010000860086820F020000860086820F0FD
:100400004000086001202590FFE725984AF220115E
:10041000C0F20701884205DCFFE7FFE725980130BD
:100420002590F2E71421C4F20201086840F00200AE
:100430000860086840F00400086001202490FFE78D
:1004400024984AF22011C0F20701884205DCFFE738
:10045000FFE7249801302490F2E71421C4F202014E
:100460000F91086820F001000860086820F0020081
:100470000860086820F004000860086820F00800A0
:100480000860086820F010000860086820F020006C
:100490000860086820F04000086001202390FFE712
:1004A00023984AF22011C0F20701884205DCFFE7D9
:1004B000FFE7239801302390F2E71421C4F20201F0
:1004C0000E91086840F001000860086840F00200E2
:1004D0000860086840F008000860086840F01000F4
:1004E0000860086840F04000086001202290FFE7A3
:1004F00022984AF22011C0F20701884205DCFFE78A
:10050000FFE7229801302290F2E71421C4F20201A1
:100510000D91086820F001000860086820F00200D2
:100520000860086820F004000860086820F00800EF
:100530000860086820F010000860086820F02000BB
:100540000860086820F04000086001202190FFE763
:1005500021984AF22011C0F20701884205DCFFE72A
:10056000FFE7219801302190F2E71421C4F2020143
:100570000C91086840F001000860086840F0020033
:100580000860086840F004000860086840F008004F
:100590000860086840F04000086001202090FFE7F4
:1005A00020984AF22011C0F20701884205DCFFE7DB
:1005B000FFE7209801302090F2E71421C4F20201F5
:1005C0000B91086820F001000860086820F0020024
:1005D0000860086820F004000860086820F008003F
:1005E0000860086820F010000860086820F020000B
:1005F0000860086820F04000086001201F90FFE7B5
:100600001F984AF22011C0F20701884205DCFFE77B
:10061000FFE71F9801301F90F2E71421C4F2020196
:100620000A91086840F002000860086840F0040081
:100630000860086840F020000860086840F040004A
:10064000086001201E90FFE71E984AF22011C0F2B8
:100650000701884205DCFFE7FFE71E9801301E9086
:10066000F2E71421C4F202010991086820F00100A8
:100670000860086820F002000860086820F00400A4
:100680000860086820F008000860086820F0100082
:100690000860086820F020000860086820F040002A
:1006A000086001201D90FFE71D984AF22011C0F25A
:1006B0000701884205DCFFE7FFE71D9801301D9028
:1006C000F2E71421C4F202010891086840F0010029
:1006D0000860086840F004000860086840F00800FE
:1006E0000860086840F020000860086840F040009A
:1006F000086001201C90FFE71C984AF22011C0F20C
:100700000701884205DCFFE7FFE71C9801301C90D9
:10071000F2E71421C4F202010791086820F00100F9
:100720000860086820F002000860086820F00400F3
:100730000860086820F008000860086820F01000D1
:100740000860086820F020000860086820F0400079
:10075000086001201B90FFE71B984AF22011C0F2AD
:100760000701884205DCFFE7FFE71B9801301B907B
:10077000F2E71421C4F202010691086840F001007A
:100780000860086840F004000860086840F008004D
:100790000860086840F010000860086840F0200019
:1007A0000860086840F04000086001201A90FFE7E8
:1007B0001A984AF22011C0F20701884205DCFFE7CF
:1007C000FFE71A9801301A90F2E71421C4F20201EF
:1007D0000591086820F001000860086820F0020018
:1007E0000860086820F004000860086820F008002D
:1007F0000860086820F010000860086820F02000F9
:100800000860086820F04000086001201990FFE7A8
:1008100019984AF22011C0F20701884205DCFFE76F
:10082000FFE7199801301990F2E71421C4F2020190
:10083000086840F001000860086840F002000860A5
:10084000086840F00400086001201890FFE718983D
:100850004AF22011C0F20701884205DCFFE7FFE7FA
:10086000189801301890F2E71421C4F202010491A3
:10087000086820F001000860086820F002000860A5
:10088000086820F004000860086820F0080008608C
:10089000086820F010000860086820F02000086058
:1008A000086820F04000086001201790FFE71798C3
:1008B0004AF22011C0F20701884205DCFFE7FFE79A
:1008C000179801301790F2E71421C4F20201039146
:1008D000086840F001000860086840F00200086005
:1008E000086840F004000860086840F008000860EC
:1008F000086840F010000860086840F020000860B8
:10090000086840F04000086001201690FFE7169844
:100910004AF22011C0F20701884205DCFFE7FFE739
:10092000169801301690F2E71421C4F202010291E8
:10093000086820F001000860086820F002000860E4
:10094000086820F004000860086820F008000860CB
:10095000086820F010000860086820F02000086097
:10096000086820F04000086001201590FFE7159806
:100970004AF22011C0F20701884205DCFFE7FFE7D9
:10098000159801301590F2E71421C4F2020101918B
:10099000086840F001000860086840F00200086044
:1009A000086840F004000860086840F0080008602B
:1009B000086840F020000860086840F040000860C7
:1009C00001201490FFE714984AF22011C0F20701A9
:1009D000884205DCFFE7FFE7149801301490F2E746
:1009E0001421C4F202010091086820F0010008609F
:1009F000086820F002000860086820F00400086021
:100A0000086820F008000860086820F010000860FE
:100A1000086820F020000860086820F040000860A6
:100A200001201390FFE713984AF22011C0F207014A
:100A3000884205DCFFE7FFE7139801301390F2E7E7
:100A400094E4F1EE100A4FF6FF71C0F2C03120EAD3
:100A5000010040F04070E1EE100A70476C0A000897
:0C0A60000000002060060000FC010008FF
:0400000508000245A8
:00000001FF
