:020000040800F2
:1000000060060020450200084D0200084F0200086B
:1000100051020008530200085502000800000000C9
:10002000000000000000000000000000570200086F
:1000300059020008000000005B0200085D02000891
:100040005F0200085F0200085F0200085F0200080C
:100050005F0200085F0200085F0200085F020008FC
:100060005F0200085F0200085F0200085F020008EC
:100070005F0200085F0200085F0200085F020008DC
:100080005F0200085F0200085F0200080000000035
:100090000000000000000000000000005F020008F7
:1000A0005F0200085F0200085F0200085F020008AC
:1000B0005F0200085F0200085F0200085F0200089C
:1000C0005F0200085F0200085F0200085F0200088C
:1000D0005F0200085F0200085F02000800000000E5
:1000E0005F0200085F0200085F02000800000000D5
:1000F0000000000000000000000000005F02000897
:10010000000000005F0200085F0200085F020008B4
:1001100000000000000000000000000000000000DF
:100120005F0200085F0200085F0200085F0200082B
:100130005F02000800000000000000000000000056
:100140000000000000000000000000005F02000846
:100150005F0200085F0200085F0200085F020008FB
:100160005F0200085F0200080000000000000000BD
:10017000000000000000000000000000000000007F
:10018000000000005F020008000000000000000006
:100190005F02000800F002F800F044F814A696E8A8
:1001A000000CB244B344DA4501D100F03BF8BAE8A0
:1001B0000F000FA696E83000A5EB040504EB060738
:1001C000AAEB0704A7F101074FEA15154FEA34140B
:1001D000A4F10104AC4201D300F024F813F0010FA4
:1001E00018BFFB1A43F0010300F001F8DBE71847E2
:1001F00004020000140200007047000000230024E5
:1002000000250026103A28BF78C1FBD8520728BF26
:1002100030C148BF0B6070471FB500F0DEF81FBD4E
:1002200010B510BD00F031F81146FFF7F5FF00F0F2
:10023000AFF800F04FF803B4FFF7F2FF03BC00F093
:1002400057F800000948804709480047FEE7FEE7E5
:10025000FEE7FEE7FEE7FEE7FEE7FEE7FEE7FEE776
:1002600004480549054A064B704700000103000891
:100270009501000860000020600600206002002058
:1002800060020020704770477047754600F02CF8F8
:10029000AE4605006946534620F00700854618B073
:1002A00020B5FFF7DDFFBDE820404FF000064FF01E
:1002B00000074FF000084FF0000BAC46ACE8C00957
:1002C000ACE8C009ACE8C009ACE8C00921F00701FE
:1002D0008D46704710B50446AFF300802046BDE858
:1002E0001040FFF7A8BF0000004870470000002042
:1002F00001491820ABBEFEE726000200704700004F
:100300004EF68851CEF20001086840F47000086093
:100310007047000082B0019001200090FFE7009834
:100320000199884205DCFFE7FFE700980130009063
:10033000F5E702B07047000080B586B0059046F63C
:100340007F70ADF8100046F66650C0F27D700390E5
:1003500040F23F60C4F65B700290059902A8425CCF
:100360001421C4F2020100910868104308604AF2A7
:100370002010C0F207000190FFF7CCFF009A01980F
:10038000116821F07F011160FFF7C4FF06B080BD46
:1003900080B582B00020019043F63001C4F2020122
:1003A000086840F0010008600021C4F202010868FA
:1003B00041F2555210430860FFE700200090FFE72C
:1003C0000098092808DCFFE70098FFF7B5FFFFE772
:1003D000009801300090F3E7EFE7F1EE100A4FF6D6
:1003E000FF71C0F2C03120EA010040F04070E1EE40
:1003F000100A704704040008000000206006000096
:04040000FC010008F3
:0400000508000245A8
:00000001FF
